:100000000C9434000C943E000C943E000C943E0082
:100010000C943E000C943E000C943E000C943E0068
:100020000C943E000C943E000C943E000C943E0058
:100030000C943E000C943E000C943E000C943E0048
:100040000C943E000C943E000C943E000C943E0038
:100050000C943E000C943E000C943E000C943E0028
:100060000C943E000C943E0011241FBECFEFD8E04C
:10007000DEBFCDBF0E9440000C9493000C940000A2
:10008000CF93DF93CDB7DEB72A970FB6F894DEBFD4
:100090000FBECDBF84E08AB98EE08093C2008CE0B1
:1000A0008093C4001092C500CE010B9640E138E069
:1000B0001092C1005A98EFE0F7E23197F1F700C0D3
:1000C00000004093C100FE0131962091C00027FF3F
:1000D000FCCF2091C6002193E817F907B1F7EFE0B4
:1000E000F7E23197F1F700C000001092C1005A9A70
:1000F000EFE0F7E23197F1F700C000003093C10064
:10010000FE0131962091C00025FFFCCF2191209364
:10011000C600E817F907B1F7EFE0F7E23197F1F71A
:0A01200000C00000C5CFF894FFCF27
:00000001FF
