:100000000C9434000C9449000C9449000C94490061
:100010000C9449000C9449000C9449000C9449003C
:100020000C9449000C9449000C9449000C9449002C
:100030000C9449000C9449000C9449000C9449001C
:100040000C9449000C9449000C9449000C9449000C
:100050000C9449000C9449000C9449000C944900FC
:100060000C9449000C94490011241FBECFEFD8E036
:10007000DEBFCDBF11E0A0E0B1E0E4E3F1E002C0FB
:1000800005900D92A230B107D9F70E947F000C9421
:1000900098000C940000CF93DF93CDB7DEB72A977A
:1000A0000FB6F894DEBF0FBECDBF30910001209196
:1000B00001011F8238872987832F90E00196820FE4
:1000C000911D91E099831A823B832C838D835A9AE8
:1000D000FE013196CE0106962091C00025FFFCCF8F
:1000E00021912093C600E817F907B1F72A960FB6B9
:1000F000F894DEBF0FBECDBFDF91CF91089584E0AD
:100100008AB98EE08093C20089E18093C400109286
:10011000C50088E18093C1000E944B002FEF84E36B
:100120009CE0215080409040E1F700C00000F4CFF7
:04013000F894FFCF71
:02013400343263
:00000001FF
