:100000000C9434000C9451000C9451000C94510049
:100010000C9451000C9451000C9451000C9451001C
:100020000C9451000C94B6000C9451000C945100A7
:100030000C9451000C9451000C9451000C945100FC
:100040000C94A7000C9451000C9451000C94510096
:100050000C9451000C9451000C9451000C945100DC
:100060000C9451000C94510011241FBECFEFD8E026
:10007000DEBFCDBF11E0A0E0B1E0E2E8F3E002C0F6
:1000800005900D92A230B107D9F721E0A2E0B1E0CE
:1000900001C01D92AC30B207E1F70E9496010C94AA
:1000A000BF010C94000086B18370909103019130E0
:1000B000B9F108F43FC09230A9F0933041F4813097
:1000C00089F1823021F490910501911113C096B10C
:1000D0009470209102012130B1F08093030190933C
:1000E00002010895909105018330F1F08111EFCF65
:1000F000992369F391509093050196B194702091E2
:100100000201213051F79111E8CF309106013111F0
:1001100016C0209306018093030190930201089575
:10012000811111C0909105019F3F89F29F5F9093CB
:100130000501CDCF8230B1F3813049F6C4CF20E044
:1001400020930601E8CF833009F4BDCFC0CF1F92C2
:100150000F920FB60F9211248F9381E080930401C8
:100160008F910F900FBE0F901F9018951F920F92B6
:100170000FB60F9211242F933F934F935F936F937A
:100180007F938F939F93AF93BF93EF93FF93809150
:10019000000181110E945300FF91EF91BF91AF9137
:1001A0009F918F917F916F915F914F913F912F918F
:1001B0000F900FBE0F901F9018955A988FE097E2FE
:1001C0000197F1F700C0000080E18093C1008091A9
:1001D000C00087FFFCCF8091C6008093070110927A
:1001E00000011092040116BC85E085BD90910401C8
:1001F00021E002C0913051F18091C00087FFFACF19
:100200008091C600E22FF0E0E95FFE4F80832F5F10
:10021000253091F715BC81E0809300011092C10058
:100220002091070130910801822F90E0830F911DEA
:1002300030910901830F911D30910A01830F911DA7
:1002400090910B01981791F080E0089515BC909360
:1002500000018FEF809307018093080180930901CB
:1002600080930A0180930B0180E0089581E09091D2
:100270000101291380E08195089520910701809163
:10028000080190E0820F911D20910901820F911DBC
:1002900020910A01820F911D80930B015A9A8FE0E1
:1002A00097E20197F1F700C0000088E08093C10059
:1002B00010920001E7E0F1E08091C00085FFFCCFE3
:1002C00081918093C60091E0EC30F907A9F781E0B5
:1002D000809300011092C100089581E0809307018E
:1002E00082E3809308018091050180930901809148
:1002F000060180930A010C943D018091080184312C
:1003000059F08E3119F08A3029F008958091090151
:10031000809301010C946D01809109018093050186
:1003200080910A01809306010C946D0184E08AB9E2
:100330008EE08093C2008CE08093C4001092C500D0
:1003400081E080936E00809370001092B20083E091
:100350008093B100789406C08FE19EE40197F1F795
:1003600000C000000E94DD00EFE1FEE43197F1F7EC
:1003700000C00000882381F30E947D01EDCFF89436
:02038000FFCFAD
:02038200013246
:00000001FF
