:100000000C9434000C9451000C9451000C94510049
:100010000C9451000C9451000C9451000C9451001C
:100020000C9451000C9451000C9451000C9451000C
:100030000C9451000C9451000C9451000C945100FC
:100040000C9468000C9451000C9451000C945100D5
:100050000C9451000C9451000C9451000C945100DC
:100060000C9451000C94510011241FBECFEFD8E026
:10007000DEBFCDBF11E0A0E0B1E0ECE7F2E002C0EE
:1000800005900D92A230B107D9F721E0A2E0B1E0CE
:1000900001C01D92AA30B207E1F70E9418010C942A
:1000A0003C010C94000084E08AB98FEF84B98EE0A3
:1000B0008093C2008CE08093C4001092C50081E060
:1000C00080936E0078948093B1001092B3000895ED
:1000D0001F920F920FB60F9211248F9381E080939D
:1000E00002018F910F900FBE0F901F9018952091D5
:1000F00006018091050190E0820F911D209107017A
:10010000820F911D90910801890F08955A988FE0F0
:1001100097E20197F1F700C0000080E18093C100F1
:100120008091C00087FFFCCF8091C60080930501BD
:100130001092020116BC85E085BD2091020181E08C
:100140009091C00097FD0FC02130D1F715BC8FEF03
:100150008093050180930601809307018093080135
:10016000809309011CC09091C600E82FF0E0EB5F7E
:10017000FE4F90838F5F853019F715BC1092C10038
:100180000E94770090910901981309C081E02091A5
:10019000050190910001291380E08195089580E088
:1001A00008950E947700809309015A9A8FE097E2A0
:1001B0000197F1F700C0000088E08093C100E5E0FE
:1001C000F1E08091C00085FFFCCF81918093C60053
:1001D00091E0EA30F907A9F71092C100089581E093
:1001E0008093050182E3809306018091030180934F
:1001F000070180910401809308010C94D100809143
:100200000601843129F08E3161F08A3081F40DC00D
:10021000809107018093030180910801809304017C
:1002200004C080910701809300010C94EF000895B1
:100230000E945300C3E0D3E80E948600EFE1FEE491
:100240003197F1F700C00000882379F00E94FF0089
:1002500080910401882339F0D093B000809103018C
:100260008093B30002C0C093B0008FE19EE4019779
:0C027000F1F700C00000E0CFF894FFCFD1
:02027C003C0044
:00000001FF
