:100000000C9434000C9451000C9451000C94510049
:100010000C9451000C9451000C9451000C9451001C
:100020000C9451000C9451000C9451000C9451000C
:100030000C9451000C9451000C9451000C945100FC
:100040000C9453000C9451000C9451000C945100EA
:100050000C9451000C9451000C9451000C945100DC
:100060000C9451000C94510011241FBECFEFD8E026
:10007000DEBFCDBF11E0A0E0B1E0E2E8F2E002C0F7
:1000800005900D92A230B107D9F721E0A2E0B1E0CE
:1000900001C01D92AA30B207E1F70E940F010C9433
:1000A0003F010C9400001F920F920FB60F92112483
:1000B0008F9381E0809302018F910F900FBE0F907C
:1000C0001F9018955A988FE097E20197F1F700C0BA
:1000D000000080E18093C1008091C00087FFFCCFC9
:1000E0008091C600809305011092020116BC85E044
:1000F00085BD9091020121E002C0913039F18091DB
:10010000C00087FFFACF8091C600E22FF0E0EB5FDE
:10011000FE4F80832F5F253091F715BC1092C100F0
:100120002091050130910601822F90E0830F911DEF
:1001300030910701830F911D30910801830F911DAC
:1001400090910901981781F080E0089515BC8FEF18
:100150008093050180930601809307018093080135
:100160008093090180E0089581E0909100012913B6
:1001700080E081950895209105018091060190E02D
:10018000820F911D20910701820F911D209108017E
:10019000820F911D809309015A9A8FE097E201978F
:1001A000F1F700C0000088E08093C100E5E0F1E0D5
:1001B0008091C00085FFFCCF81918093C60091E0C3
:1001C000EA30F907A9F71092C100089581E0809301
:1001D000050182E38093060180910301809307016A
:1001E00080910401809308010C94BB00809106016A
:1001F000843159F08E3119F08A3029F008958091B8
:100200000701809300010C94E60080910701809320
:10021000030180910801809304010C94E60084E0BE
:100220008AB98FEF84B98EE08093C2008CE080930E
:10023000C4001092C50081E080936E00789483E83A
:100240008093B00081E08093B1001092B30006C0AB
:100250008FE19EE40197F1F700C000000E94620068
:10026000EFE1FEE43197F1F700C00000882381F34D
:100270000E94F600809103018093B300E9CFF894C7
:02028000FFCFAE
:020282003C003E
:00000001FF
