:100000000C9434000C9451000C9451000C94510049
:100010000C9451000C9451000C9451000C9451001C
:100020000C9451000C94C8000C9451000C94510095
:100030000C9451000C9451000C9451000C945100FC
:100040000C94B9000C9451000C9451000C94510084
:100050000C9451000C9451000C9451000C945100DC
:100060000C9451000C94510011241FBECFEFD8E026
:10007000DEBFCDBF11E0A0E0B1E0E4E6F3E002C0F6
:1000800005900D92A230B107D9F721E0A2E0B1E0CE
:1000900001C01D92AC30B207E1F70E949C010C94A4
:1000A000B0010C94000084E08AB98EE08093C20015
:1000B0008CE08093C4001092C50081E080936E00B4
:1000C000809370001092B20083E08093B100789426
:1000D0000895811103C010920001089581E080937A
:1000E0000001089586B18370909103019130C1F0B1
:1000F000E0F0923039F0933049F58130C1F0823030
:1001000029F51DC0833039F4909105019F3F19F006
:100110009F5F9093050190910501811117C011C057
:10012000882329F0833059F011C0823031F4909146
:1001300005019F3F59F09F5F07C0813039F49091CE
:100140000501992319F091509093050196B194708F
:1001500020910201213041F4911106C03091060135
:10016000311120E020930601809303019093020156
:1001700008951F920F920FB60F9211248F9381E072
:10018000809304018F910F900FBE0F901F901895D0
:100190001F920F920FB60F9211242F933F934F93FC
:1001A0005F936F937F938F939F93AF93BF93EF93DF
:1001B000FF938091000181110E947200FF91EF91E5
:1001C000BF91AF919F918F917F916F915F914F916F
:1001D0003F912F910F900FBE0F901F901895209177
:1001E00008018091070190E0820F911D2091090183
:1001F000820F911D90910A01890F08955A988FECF2
:1002000097E00197F1F700C0000080E18093C10002
:100210008091C00087FFFCCF8091C60080930701CA
:10022000109200011092040116BC85E085BD9091EA
:10023000040181E02091C00027FD11C09130D1F769
:1002400015BC909300018FEF809307018093080104
:100250008093090180930A0180930B011FC02091B4
:10026000C600E82FF0E0E95FFE4F20838F5F853006
:1002700009F715BC81E0809300011092C1000E9433
:10028000EF0090910B01981309C081E020910701C4
:1002900090910101291380E08195089580E00895EF
:1002A0000E94EF0080930B015A9A8FEC97E0019720
:1002B000F1F700C0000088E08093C10010920001B7
:1002C000E7E0F1E08091C00085FFFCCF8191809351
:1002D000C60091E0EC30F907A9F781E080930001B6
:1002E0001092C100089581E08093070182E380931A
:1002F0000801809105018093090180910601809396
:100300000A010C94500180910801843129F08E314A
:1003100061F08A3081F40DC080910901809305015C
:1003200080910A018093060104C0809109018093A5
:1003300001010C94730108950E9453000E94FE0075
:10034000EFECF7E03197F1F700C0000081110E9457
:1003500083018FE19EE40197F1F700C00000EECF2A
:04036000F894FFCF3F
:02036400013264
:00000001FF
