:100000000C9434000C9451000C9451000C94510049
:100010000C9451000C9451000C9451000C9451001C
:100020000C9451000C94D4000C9451000C94510089
:100030000C9451000C9451000C9451000C945100FC
:100040000C94C5000C9451000C9451000C94510078
:100050000C9451000C9451000C9451000C945100DC
:100060000C9451000C94510011241FBECFEFD8E026
:10007000DEBFCDBF11E0A0E0B1E0ECE7F3E002C0ED
:1000800005900D92A230B107D9F721E0A2E0B1E0CE
:1000900001C01D92AC30B207E1F70E94AA010C9496
:1000A000BC010C94000084E08AB917B88FEF88B9BE
:1000B0008EE08093C2008CE08093C4001092C50053
:1000C00081E080936E00809370001092B20083E014
:1000D0008093B10078940895811103C010920001BB
:1000E000089581E080930001089586B1867090E0C4
:1000F00095958795282F309103013130E9F008F16B
:10010000323039F0333071F58130E9F0823051F519
:1001100022C0833039F4309105013F3F19F03F5F31
:10012000309305013091050121111CC03431D1F00B
:1001300031503093050116C0882329F0833059F0DF
:1001400011C0823031F4209105012F3F59F02F5F0B
:1001500007C0813039F420910501243119F0215074
:100160002093050126B1217030910201313041F414
:10017000211106C040910601411130E03093060183
:10018000809303012093020108951F920F920FB6EE
:100190000F9211248F9381E0809304018F910F902F
:1001A0000FBE0F901F9018951F920F920FB60F92CF
:1001B00011242F933F934F935F936F937F938F936C
:1001C0009F93AF93BF93EF93FF93809100018111B1
:1001D0000E947500FF91EF91BF91AF919F918F9118
:1001E0007F916F915F914F913F912F910F900FBE33
:1001F0000F901F901895209108018091070190E0C1
:10020000820F911D20910901820F911D90910A0189
:10021000890F08955A9882E08A95F1F700C080E12D
:100220008093C1008091C00087FFFCCF8091C60001
:1002300080930701109200011092040116BC85E022
:1002400085BD9091040181E02091C00027FD11C07F
:100250009130D1F715BC909300018FEF8093070187
:10026000809308018093090180930A0180930B0118
:100270001FC02091C600E82FF0E0E95FFE4F208309
:100280008F5F853009F715BC81E0809300011092E3
:10029000C1000E94FB0090910B01981309C081E0FE
:1002A0002091070190910101291380E08195089523
:1002B00080E008950E94FB0080930B015A9A8FEC16
:1002C00097E00197F1F700C0000088E08093C1003B
:1002D00010920001E7E0F1E08091C00085FFFCCFC3
:1002E00081918093C60091E0EC30F907A9F781E095
:1002F000809300011092C100089581E0809307016E
:1003000082E3809308018091050180930901809127
:10031000060180930A010C945A01809108018431EE
:1003200029F08E3181F08A30A1F411C09091090139
:100330009093050120910A0120930601943138F42D
:100340008093050104C080910901809301010C9400
:100350007D0108950E9453000E940A0192E09A953F
:10036000F1F700C081110E948D018FEC97E0019799
:0C037000F1F700C00000F0CFF894FFCFC0
:02037C0001324C
:00000001FF
