:100000000C9434000C943E000C943E000C943E0082
:100010000C943E000C943E000C943E000C943E0068
:100020000C943E000C943E000C943E000C943E0058
:100030000C943E000C943E000C943E000C943E0048
:100040000C943E000C943E000C943E000C943E0038
:100050000C943E000C943E000C943E000C943E0028
:100060000C943E000C943E0011241FBECFEFD8E04C
:10007000DEBFCDBF0E9440000C9459000C940000DC
:100080008FEF84B983E88093B00081E08093B10062
:100090001092B3008AE090E08093B300EFE1FEE4B9
:1000A0003197F1F700C0000001968F3F9105A4F34E
:0600B000F1CFF894FFCF30
:00000001FF
